:020000040000FA
:04000000F0EF09F024
:08000800056ED8CF06F0E0CF31
:1000100007F00001E9CF0DF0EACF08F0E1CF09F0D9
:10002000E2CF0AF0D9CF0BF0DACF0CF0F3CF14F017
:10003000F4CF15F0FACF16F000C00FF001C010F0A9
:1000400002C011F003C012F004C013F0F2AA2CEFAA
:1000500000F0F2B498EF02F09DA232EF00F09EB2F1
:1000600006EF01F0F2A838EF00F0F2B28DEF00F0E9
:10007000A3A03EEF00F0A4B005EF02F00FC000F027
:1000800010C001F011C002F012C003F013C004F060
:100090000E8E0DC0E9FF08C0EAFF09C0E1FF0AC0EB
:1000A000E2FF0BC0D9FF0CC0DAFF14C0F3FF15C08C
:1000B000F4FF16C0FAFF055007C0E0FF06C0D8FFE6
:1000C0001000F2CF0EF0F29EF76ADC0FF66E000E13
:1000D000F7220900F5500EBEF28E120048656164E9
:1000E00062616E6420496E697469616C697A6564E5
:1000F00021402300F2CF0EF0F29EF76A0E0FF66E4B
:10010000010EF7220900F5500EBEF28E12000D0A04
:10011000726174696F3A202566001EB008D01E8097
:10012000100E006E002EFED70000CC6A08D0036AC5
:1001300067511F0FE96E000E0320EA6EEF2AF2925C
:100140003EEF00F0AB6BAC6BAD6BAB6BAB513F08F4
:100150001EE3036AAB511F0FE96E000E0320EA6E27
:10016000EF50020809E2036AAB511F0FE96E000E5F
:100170000320EA6EEF6A09D0036AAB511F0FE96EE4
:10018000000E0320EA6E010EEF6EAB2BDFD7AC6BD7
:10019000AC5107082BE3AB6BAB51070823E3036AB1
:1001A000AC515F0F016E000E032203C0AFF0036A73
:1001B000AC515F0FE96E000E0320EA6ED890EF3469
:1001C000B16FAB51AD25036A1F0FE96E000E03201E
:1001D000EA6EEF50B125AFC0EAFF01C0E9FFEF6E54
:1001E000AB2BDAD7080EAD27AC2BD2D7AB6BAB510C
:1001F0003F080AE3036AAB511F0FE96E000E0320AC
:10020000EA6EEF6AAB2BF3D70FEF01F01EA00BD015
:1002100067513F0802E3672B06D09D9293D71E8259
:100220001E90676B9D829E923EEF00F0BD6BBC6B93
:10023000BB6BBA6BB8C0BFF0B7C0BEF0B953D8B48F
:100240008BD0BFC003F0BEC0E9FFBFC0EAFFEFCF55
:1002500000F0016A026A036A03C0BDF002C0BCF08C
:1002600001C0BBF000C0BAF0BE51D8B4BF07BE0792
:10027000BEC0E9FFBFC0EAFFEF50C26BC16BC06FE9
:10028000006A0050BA13C051BB13C151BC13C25114
:10029000BD13BE51D8B4BF07BE07BEC0E9FFBFC083
:1002A000EAFFEF50030BC46FC56BC66BC76B006AE8
:1002B000016A0050BA130150BB13C451BC13C5519D
:1002C000BD13BEC0E9FFBFC0EAFFEF50E00BC46F33
:1002D000C56BC66BC76B006AC435016EC535026E4F
:1002E000C635036E01360236033601360236033652
:1002F000013602360336013602360336E00E0116A9
:100300000050BA130150BB130250BC130350BD136D
:10031000BE51D8B4BF07BE07BEC0E9FFBFC0EAFFE9
:10032000EF50C16BC06F006A016AC035026EC13503
:10033000036E0236033602360336023603360236C1
:100340000336E00E02160050BA130150BB130250E0
:10035000BC130350BD134FD0020EBE5F000EBF5B37
:10036000BEC0E9FFBFC0EAFFEF50E00BC46FC56B32
:10037000C66BC76BC731BD6FC631BC6FC531BB6FB4
:10038000C431BA6FBD33BC33BB33BA33BD33BC33B6
:10039000BB33BA33BD33BC33BB33BA33BD33BC33E9
:1003A000BB33BA33070EBD17BE51D8B4BF07BE0763
:1003B000BEC0E9FFBFC0EAFFEF50C36BC26BC16BA9
:1003C000C06FC035006EC135016EC235026EC335D7
:1003D000036E003601360236033600360136023629
:1003E0000336F80E00160050BA130150BB1302502A
:1003F000BC130350BD13BAC000F0BBC001F0BCC0B9
:1004000002F0BDC003F055EF02F0AC6B6E0EAB6FA7
:1004100060AE17D0F10E6F146F6E6D99A4906D9150
:1004200074BE6D81749E60A40BD0000E60B0010E8E
:10043000070B006ED8900036F10E6D1500106D6F31
:1004400020D00F0150AF19D0F10E6F140A096F6E52
:1004500000016D89A4926D9174BC6D81749C0F0133
:100460005051070B070B006ED8900036F10E0001BB
:100470006D1500106D6F05D00F01000E016E4AD092
:10048000000165500F0B686F6D9B65BC6D8B6D9D9A
:1004900062B66D8D000E6DBD010EB06F0F0EB86FA0
:1004A000640EB76FB0C0B9F0C1D603C06CF002C023
:1004B0006BF001C06AF000C069F00F0EAF6F660EFE
:1004C000AE6FAD6B6851AD5D14E2AEC0E9FFAFC079
:1004D000EAFFEFCFB2F0ACC0EAFFABC0E9FFB2C0B9
:1004E000EFFFAB2BD8B4AC2BAE2BD8B4AF2BAD2BCE
:1004F000E9D7F10E6F146F6E6D9FA4BE6D8FA49E31
:100500006DA904D00F01509F03D00001609E0F0120
:10051000010E016E00016951070807E16A5305E108
:100520006B5303E16C5301E11E84A4903EEF00F095
:1005300094928B72775306E092908970775302E120
:1005400092908980785306E094948B74785302E1FA
:1005500094948B84795306E092928972795302E1E4
:1005600092928982F2943EEF00F08C39700B006E0B
:10057000D89000361F0E6F1400106F6E6ECF00F013
:10058000003A0030070B8C5DF9E1000CC00E7014CE
:100590000909706E3F0E7014706EF80E7114020926
:1005A000716EC70E71142809716E719C718EF80EF0
:1005B00072140509726E729C7AEF03F09BC0A2F070
:1005C0009AC0A1F0A05352E0A1C0E9FFA2C0EAFF87
:1005D0009CC0EFFFA151D8B4A207A107A1C0E9FFB9
:1005E000A2C0EAFF9DC0EFFFA151D8B4A207A107A6
:1005F000A1C0E9FFA2C0EAFF9E51030BEF6EA1C0AC
:10060000E9FFA2C0EAFF9EC000F0003600360036C7
:10061000F80E00160050E00BEF10EF6EA1C0E9FFDE
:10062000A2C0EAFFEF500809EF6EA151D8B4A207AB
:10063000A107A1C0E9FFA2C0EAFF9EC000F0003AF6
:100640000032070E00160050070BEF6EA1C0E9FF45
:10065000A2C0EAFF9FC000F0003600360036F80E58
:1006600000160050F80BEF10EF6E3FD0A1C0E9FF6D
:10067000A2C0EAFFEF6AA151D8B4A207A107A1C0A6
:10068000E9FFA2C0EAFFEF6AA151D8B4A207A1070F
:10069000A1C0E9FFA2C0EAFF9CC000F0003A00360A
:1006A000E00E00160050E00BEF6EA151D8B4A20787
:1006B000A107A1C0E9FFA2C0EAFF9CC000F0003280
:1006C000003200321F0E001600501F0BEF6EA1C04B
:1006D000E9FFA2C0EAFF9DC000F0003A0036E00E3C
:1006E00000160050E00BEF10EF6E000C040E8C6F44
:1006F0003CDF4CD7606A9F0E6014606E608460CFF0
:1007000050FF739A73980F0E9B6F1B0E9A6F9F6B1F
:100710009E6B9D6B9C6BA06B51DF0F0E9B6F030E4E
:100720009A6F9F6B9E6B9D6B9C6BA06B47DF0F0E50
:100730009B6F070E9A6F9F6B9E6B9D6B9C6BA06B64
:100740003DDF0F0E9B6F1F0E9A6F9F6B9E6B9D6B15
:100750009C6BA06B33DF0F0E9B6F0B0E9A6F9F6B22
:100760009E6B9D6B9C6BA06B29DF0F0E9B6F9A6F2E
:100770009F6B9E6B9D6B9C6BA06B20DF0F0E9B6F26
:10078000130E9A6F9F6B9E6B9D6B9C6BA06B16DF1D
:100790000F0E9B6F170E9A6F9F6B9E6B9D6B9C6BE2
:1007A000A06B0CDF9350FB0B0809936E8C6BDDDEA6
:1007B000F2EF03F0EA6A8D0EE96EEF500DE0060EDF
:1007C000016E006A002EFED7012EFBD77B0E006E55
:1007D000002EFED7EF2EF3D7000C1E94776B786BAC
:1007E000796B84D7949A8B9AA3809D8AF28A9D8292
:1007F000F288C150C00B0F09C16EC290C69A949A7C
:1008000094889496010EC66E000EC76ED190830E2A
:10081000D56ECD6A180E0609CA6E8D0ECB6EB16A02
:10082000B56AC00EF21293988A98939A8A9A939214
:100830008A9294968B9694988B9894908B9094929D
:100840008B92929489949296899692988998929A8A
:10085000899A9290899094948B9492928992020EA4
:100860008C6FFA0E8D6FA6DF8C2FFBD7929089804C
:10087000640E8D6F9FDF94948B84640E8D6F9ADF6E
:1008800092928982640E8D6F95DF92908990640EAA
:100890008D6F90DF94948B94640E8D6F8BDF9292AA
:1008A0008992640E8D6F86DF8C6B8C510ADC8C2BE9
:1008B000006E00509EA8FED7AD6E170E8C5DF5E160
:1008C00012EF0AF00F0E986F660E976F0F0140B788
:1008D00008D0F10E6F1408096F6E0001996B1BD0E0
:1008E0000F0130B709D0F10E6F1406096F6E010EBB
:1008F0000001996F10D00F0120B709D0F10E6F14CD
:1009000004096F6E020E0001996F05D00F01000EF1
:10091000016E3BD000019351030B006EFC0E60147E
:100920000010606E0F0E9B6F640E9A6F8FC09FF069
:100930008EC09EF08DC09DF08CC09CF094C0A0F045
:100940003DDE92C065FF659C95B1658C966B9251BA
:10095000965D14E290C0E9FF91C0EAFFEFCF9CF0F2
:1009600098C0EAFF97C0E9FF9CC0EFFF972BD8B46F
:10097000982B902BD8B4912B962BE9D76086F10E4B
:100980006F146F6E010E016E0F01000124EF0AF06B
:10099000A051A203F3CF01F0F4CF00F0A303F35072
:1009A0000026A151A203F3500020026E000C956BAB
:1009B000966B986B976B996B9B6B9A6B9D6B9C6B13
:1009C0009E6B9451080870E1956B92C0E9FF93C04B
:1009D000EAFFEFCF96F0010E9225E96E000E93210B
:1009E000EA6EEF50036A976F03C098F09737983715
:1009F000973798379737983797379837F00E971774
:100A0000020E9225E96E000E9321EA6EEF50F00B74
:100A1000006E003A0F0E001600509727000E982324
:100A2000020E9225E96E000E9321EA6EEF500F0B35
:100A3000996F030E9225E96E000E9321EA6EEF5036
:100A4000036A9A6F03C09BF09AC0A0F09F6B040EDC
:100A50009225E96E000E9321EA6EEF509F259A6F62
:100A6000000EA0219B6F050E9225E96E000E9321CA
:100A7000EA6EA16BEFCFA0F0010EA36FA26B88DF2F
:100A8000060E9225E96E000E9321EA6EEF500124C6
:100A90009C6F000E02209D6F070E9225E96E000EDE
:100AA0009321EA6EEFCF9EF09451090877E192C04E
:100AB000E9FF93C0EAFFEFCF95F0010E9225E96EB2
:100AC000000E9321EA6EEFCF96F0020E9225E96EAA
:100AD000000E9321EA6EEF50036A976F03C098F0FF
:100AE0009737983797379837973798379737983792
:100AF000F00E9717030E9225E96E000E9321EA6E11
:100B0000EF50F00B006E003A0F0E001600509727C2
:100B1000000E9823030E9225E96E000E9321EA6ED3
:100B2000EF500F0B996F040E9225E96E000E932182
:100B3000EA6EEF50036A9A6F03C09BF09AC0A0F070
:100B40009F6B050E9225E96E000E9321EA6EEF5021
:100B50009F259A6F000EA0219B6F060E9225E96ECD
:100B6000000E9321EA6EA16BEFCFA0F0010EA36FF0
:100B7000A26B0EDF070E9225E96E000E9321EA6E3E
:100B8000EF5001249C6F000E02209D6F080E9225ED
:100B9000E96E000E9321EA6EEFCF9EF0950E016E86
:100BA000026A2EEF0AF0FF0E976F986B996F9A6B9F
:100BB000955332E09551150803E2150E966F02D059
:100BC00095C096F09651955F94C003F09351932B86
:100BD000D8B4942BE96E03C0EAFFEF509727000EBC
:100BE00098239751992798519A23962FEDD797C01C
:100BF0009BF09C6B9851036A9725976F03509C213B
:100C0000986F99C09BF09C6B9A51036A9925996FD4
:100C100003509C219A6FCCD797C09BF09C6B985146
:100C2000036A9725976F03509C21986F99C09BF09A
:100C30009C6B9A51036A9925996F03509C219A6F76
:100C400099C001F032EF06F08E6B8F6B906B8CC009
:100C500091F08DC092F08DC094F08CC093F0070E8F
:100C6000956FA1D701C08EF0070E8C25E96E000E9E
:100C70008D21EA6E8E51EF5C04E0000E016E04D00F
:100C800003D0010E016E00D047EF0AF08E0E006E09
:100C900091C001F090C002F0036A015209E102C064
:100CA00001F0026A080E005E015202E1006A08D0FB
:100CB000D89001BE04D0023601360006F9D7019E55
:100CC000000C9051D8B4A5D09C6F9451D8B4A1D049
:100CD0009C5F05E37F0E9C27D8B09BD006D0810E89
:100CE0009C5FD8A096D0D8B494D09CC000F0016A84
:100CF000026A036A9B6B91C09AF09A8F92C099F036
:100D000093C098F0190E9C6F9751985F0DE2010EF9
:100D1000995F0AE29A5F08E29B5F06E29B2B9A2B9F
:100D2000992B9751982728D09651995F12E2010E7E
:100D30009A5F0FE29B5F0DE29B2B9A2B96519927AE
:100D40009751982719E3992B17E19A2B15E19B2BC3
:100D500013D0955180099A5F0EE2010E9B5F0BE262
:100D60009B2B955180099A2796519927E9E39A2B55
:100D7000E7E19B2BE5D703809C2F01D00BD0D890C7
:100D8000983799379A379B37D89003360236013611
:100D90009D37BAD79DA106D0D890013202320332D6
:100DA0009D3302D0000635E09DBF1ED0D890983705
:100DB00099379A379B379751985F07E2010E995FF1
:100DC00004E29A5F02E29B5F1AE39651995F05E2A3
:100DD000010E9A5F02E29B5F12E3955180099A5FD0
:100DE00003E2010E9B5F0BE3032A09E1022A07E1FC
:100DF000012A05E1002A0DE001320232033291C0DE
:100E00009CF095519C1B9CAF02D0018E06D0019E98
:100E100004D0006A016A026A036A000C9E51D8B4C9
:100E200071D0006EA251D8B46DD0002604E3810EBB
:100E3000002668E204D07F0E005E64E363E09FC09A
:100E4000A6F0A351A61B9F8FA38FA151A503F4CF9A
:100E5000A8F0A051A403F4CF03F0F3CFA7F0A503AB
:100E6000F350A827F450A723000E0322A151A40396
:100E7000F350A827F450A723000E026A032202228F
:100E80009F51A503F350A727F4500322000E02221E
:100E90009F51A403F3500326F4500222000E016A6E
:100EA0000122A151A303F350A727F4500322000EFF
:100EB00002220122A051A303F3500326F450022280
:100EC000000E01229F51A303F3500226F450012289
:100ED000002A01BE05D0A7370336023601360006C8
:100EE000000EA7AF0AD0032A02220122015005E119
:100EF000025003E1035001E1002AA6BF018EA6AF14
:100F0000019E04D0006A016A026A036AF9EF07F0E1
:100F10009E51B6089E6F036A9FC0A2F09F8FD89023
:100F20009F33A033A13303320232013200329E2FAD
:100F3000F6D7A2AF0BD0001E011E021E031E002A10
:100F4000D8B4012AD8B4022AD8B4032A0CEF08F086
:100F5000006A016A026A036AA66BA76BA86BA96B99
:100F6000A551A411A311A2112CE0200EAA6FD890B4
:100F70009E379F37A037A137A637A737A837A9379D
:100F8000A551A95D08E1A451A85D05E1A351A75DA4
:100F900002E1A251A65D0FE3A251A65FA351D8A022
:100FA000A33DA75FA451D8A0A43DA85FA551D8A098
:100FB000A53DA95FD8800036013602360336AA2F38
:100FC000D6D7EA6AA60EE96E000CE950966F9551E5
:100FD000986F19E094C0A1F093C0A0F092C09FF068
:100FE00091C09EF0A56BA46B200EA36F820EA26F22
:100FF00015D703C094F002C093F001C092F000C076
:1010000091F0982FE7D794C0A1F093C0A0F092C0C0
:101010009FF091C09EF07CD703C094F002C093F083
:1010200001C092F000C091F094AF0DD09607968B5E
:10103000911F921F931F941F912BD8B4922BD8B459
:10104000932BD8B4942B3B0E9D6F9A0E9C6FCA0EB7
:101050009B6F9A6B0A0E986F9551D8B4962B94C0DB
:10106000A1F093C0A0F092C09FF091C09EF09DC0EF
:10107000A5F09CC0A4F09BC0A3F09AC0A2F068DFCA
:101080000150EFCF91F0ECCF92F0ECCF93F0ECCF9A
:1010900094F000520FE19529985D0CE096510CE018
:1010A0000F0B985D01E03BE296BF39D096BD04D0AE
:1010B000200E30D0200E961796AB0DD0969B9551F2
:1010C000D8A496070050966F2D0E9EA8FED7AD6E41
:1010D0009651006E966B9551985D0BE10050966F9E
:1010E0002E0E9EA8FED7AD6E9651006E200E96175E
:1010F000000E300E96AB0ED0969B9551D8A4960755
:101100000050966F2D0E9EA8FED7AD6E9651006EC4
:10111000966B300E002600509EA8FED7AD6E9DC087
:10112000A1F09CC0A0F09BC09FF09AC09EF0A56B60
:10113000A46BA36B0A0EA26F0BDF03C09DF002C06D
:101140009CF001C09BF000C09AF0982F88D744EF24
:1011500009F091C098F09551981B98AF05D0D8949C
:10116000D89091BFD8802FD091C098F094C099F0BA
:101170009051995F06E098AF26D0D850010AD86EFA
:1011800022D095C099F09151995F06E098AF1BD09D
:10119000D850010AD86E17D096C099F09251995F35
:1011A00006E098AF10D0D850010AD86E0CD097C086
:1011B00099F09351995F06E098AF05D0D850010A95
:1011C000D86E01D0D890000C9290899094948B9412
:1011D00092928992776B786B796B9051200B926F1A
:1011E000936B925302E1935302E092908980905165
:1011F000100B926F936B925302E1935302E094941D
:101200008B849051080B926F936B925302E193532E
:1012100002E0929289829051040B926F936B9253E9
:1012200002E1935302E0010E776F9051020B926F2F
:10123000936B925302E1935302E0010E786F905149
:10124000010B926F936B925302E1935302E0010EF4
:10125000796F000C906B90517AEC00F0902B006E3F
:1012600000509EA8FED7AD6E090E905DF4E1890E88
:10127000E96E8FC094F08EC093F08DC092F08CC058
:1012800091F0020E956FA1D68FC093F08EC092F0B0
:101290008DC091F08CC090F0CD0E976FCC0E966FF4
:1012A000956F7B0E946F55DF01E205E1916B080E9F
:1012B000906F8ADF94D08FC093F08EC092F08DC073
:1012C00091F08CC090F0976B966B956B946B41DFAF
:1012D00001E205E1916B090E906F76DF80D08FC03F
:1012E00093F08EC092F08DC091F08CC090F0CD0E36
:1012F000976FCC0E966F4C0E956F7B0E946F29DF17
:1013000001E205E1916B180E906F5EDF68D08FC02F
:1013100093F08EC092F08DC091F08CC090F0976BDE
:10132000966B956B7D0E946F14DF01E205E1916B76
:10133000120E906F49DF53D08FC093F08EC092F0A1
:101340008DC091F08CC090F0976B966B956B7E0E74
:10135000946FFFDE01E205E1916B100E906F34DFB8
:101360003ED08FC093F08EC092F08DC091F08CC0B3
:1013700090F0976B966B400E956F7E0E946FE9DE42
:1013800001E205E1916B300E906F1EDF28D08FC017
:1013900093F08EC092F08DC091F08CC090F0976B5E
:1013A000966B956B7F0E946FD4DE05E3916B240EE4
:1013B000906F0ADF14D0936B926B916B7F0E906FDE
:1013C0008FC097F08EC096F08DC095F08CC094F0D1
:1013D000C0DE01E204E1916B200E906FF5DE000C9F
:1013E000F86AD09E0D8EEA6AE96AB886560EAF6E2C
:1013F000000EB06EA60EAC6E900EAB6EC150C00B60
:101400000F09C16E186A196A1E90676B1E92846B71
:10141000856B866B876B010E886F896B8A6F8B6B10
:10142000EDEF03F01EA211D08F6B8E6B8D6B080E4B
:101430008C6F916B5F0E906F080E926F010E936F21
:10144000946B956B62EF04F01E921EA4A4D0936B74
:101450006E0E926F080E946FD7EF04F002C003F087
:1014600001C08CF002C08DF0EA6A7A0EE96E02C00B
:10147000E2FF01C0E1FF0A0E016EE6CFEEFF012E92
:10148000FCD71E948D6B6E0E8C6F24EF06F01E86BB
:101490001EA681D07F5105083DE180533BE182C00B
:1014A00089F081C088F089C091F088C090F046EC46
:1014B00006F000C08CF001C08DF002C08EF003C0B9
:1014C0008FF08BC091F08AC090F046EC06F08FC090
:1014D00093F08EC092F08DC091F08CC090F003C05C
:1014E00097F002C096F001C095F000C094F061EC56
:1014F00006F003C087F002C086F001C085F000C08E
:1015000084F087C08FF086C08EF085C08DF084C0D7
:101510008CF0A0DE7F5108083DE180533BE182C0A2
:101520008BF081C08AF089C091F088C090F046ECC1
:1015300006F000C08CF001C08DF002C08EF003C038
:101540008FF08BC091F08AC090F046EC06F08FC00F
:1015500093F08EC092F08DC091F08CC090F003C0DB
:1015600097F002C096F001C095F000C094F061ECD5
:1015700006F003C087F002C086F001C085F000C00D
:1015800084F087C08FF086C08EF085C08DF084C057
:0A1590008CF060DE1E9646D70300C3
:020000040030CA
:0E00000000C21F0E008695000FC00FE00F40DB
:00000001FF
;PIC18F2580
