:020000040000FA
:0600000098EF14F012005D
:020006001200E6
:060008000FEF00F01200F2
:0800180069EF00F01200DACFDD
:10002000E4FFE2CFDAFFE9CFE4FFEACFE4FFF6CF67
:10003000E4FFF7CFE4FFF5CFE4FFF3CFE4FFF4CF25
:10004000E4FFFACFE4FF00EE00F0140EE80403E34F
:10005000EECFE4FFFBD700EE14F0060EE80403E356
:10006000EECFE4FFFBD7E652F2A406D00101EF0584
:1000700002E1E0EC0AF0F294F0A207D00101010ED7
:10008000EF6FD58ED66AF098F092E55200EE19F037
:10009000060EE80403E3E5CFEDFFFBD700EE13F017
:1000A000140EE80403E3E5CFEDFFFBD7E5CFFAFF3D
:1000B000E5CFF4FFE5CFF3FFE5CFF5FFE5CFF7FFA1
:1000C000E5CFF6FFE5CFEAFFE5CFE9FFE5CFDAFFC1
:1000D0001100DACFE4FFE2CFDAFFE9CFE4FFEACFA5
:1000E000E4FFF6CFE4FFF7CFE4FFF5CFE4FFF3CF73
:1000F000E4FFF4CFE4FFFACFE4FF00EE00F0140ECB
:10010000E80403E3EECFE4FFFBD700EE14F0060EA5
:10011000E80403E3EECFE4FFFBD7E6529EA00ED047
:10012000E0EC0CF09E900101EA5108E0EB0503E1E0
:100130008484EB6B03D08494010EEB6FA1A203D0F7
:10014000B3EC0CF0A1929EAA02D055EC0AF0E55255
:1001500000EE19F0060EE80403E3E5CFEDFFFBD750
:1001600000EE13F0140EE80403E3E5CFEDFFFBD738
:10017000E5CFFAFFE5CFF4FFE5CFF3FFE5CFF5FFDD
:10018000E5CFF7FFE5CFF6FFE5CFEAFFE5CFE9FFE3
:06019000E5CFDAFF1100CB
:0A01960001007E290000E1010000D5
:0401A0001600000045
:0C01A400A8EC10F070EC0DF08250010B84
:1001B00007E00101E60504E18484E46B1DD81AD050
:1001C0008250010B05E00101E65102E1849412D056
:1001D0008250010B08E10101E50505E18484010E6F
:1001E000E46F0AD807D08250010B04E10101E55108
:1001F00001E18494DBD71200D9CFE6FFE1CFD9FF2C
:100200003D0EE126D9500B0FE96EDACFEAFF520E10
:10021000EE6E650EEE6E610EEE6E640EEE6E690EA3
:10022000EE6E6E0EEE6E670EEE6E200EEE6E660ECB
:10023000EE6E690EEE6E660EEE6E6F0EEE6E2E0EAA
:10024000EE6EEE6EEE6EEE6AD9501B0FE96EDACFEF
:10025000EAFF410EEE6E780EEE6E690EEE6E730ED4
:10026000EE6E200EEE6EEE6E4D0EEE6E610EEE6ECA
:10027000670EEE6E200EEE6EEE6E530EEE6E740E88
:10028000EE6E720EEE6EEE6AEE6AEE6AD9502C0FCA
:10029000E96EDACFEAFF2D0EEE6EEE6EEE6EEE6ECA
:1002A000EE6EEE6EEE6EEE6EEE6EEE6EEE6EEE6E6E
:1002B000EE6EEE6EEE6AEE6AEE6A300EE66EFBEC05
:1002C00008F0E5520101EE6F400EEE15E76E090EE3
:1002D000E7CFDBFF200EEE15E76E0A0EE7CFDBFF60
:1002E000090EDB50400801E0EAD1D9500B0FE66E51
:1002F000000EDA20E66E18EC0AF0E552E5520D0E1B
:10030000E66E0BEC0AF0E5521EEC09F0060EE66E06
:10031000010EE66EF5D9E552E552030EF3CFDBFF91
:10032000040EF4CFDBFF460EE66E010EE66EE8D952
:10033000E552E552050EF3CFDBFF060EF4CFDBFFEF
:10034000860EE66E010EE66EDBD9E552E552070E2B
:10035000F3CFDBFF080EF4CFDBFF030EDBCFE6FFAE
:10036000040EDBCFE6FFD2DAE552E552DF6E050E72
:10037000DBCFE6FF060EDBCFE6FFC8DAE552E5523B
:10038000E76E010EE7CFDBFF070EDBCFE6FF080EBF
:10039000DBCFE6FFBBDAE552E552E76E020EE7CFB0
:1003A000DBFF060EE66E010EE66EA1EC08F0E552EC
:1003B000E5520D0EE66E0BEC0AF0E552460EE66EC7
:1003C000010EE66EA1EC08F0E552E5520D0EE66E68
:1003D0000BEC0AF0E552860EE66E010EE66EA1EC1D
:1003E00008F0E552E5520D0EE66E0BEC0AF0E55210
:1003F0000101E40501E04BD1D9502C0FE66E000E4F
:10040000DA20E66E18EC0AF0E552E5520D0EE66EC3
:100410000BEC0AF0E552D9501B0FE66E000EDA2005
:10042000E66E18EC0AF0E552E5520D0EE66E0BECA6
:100430000AF0E552D9502C0FE66E000EDA20E66E77
:1004400018EC0AF0E552E5520D0EE66E0BEC0AF0E0
:10045000E552580EE66E0BEC0AF0E552200EE66E01
:100460000BEC0AF0E552200EE66E0BEC0AF0E552BA
:10047000200EE66E0BEC0AF0E552200EE66E0BEC59
:100480000AF0E552030EDBCFE6FF040EDBCFE6FFFA
:10049000CCEC0EF0E552E552200EE66E0BEC0AF0C5
:1004A000E552200EE66E0BEC0AF0E552200EE66EE9
:1004B0000BEC0AF0E552200EE66E0BEC0AF0E5526A
:1004C000DFCF14F0156A14BE156814C0E6FF15C01E
:1004D000E6FFCCEC0EF0E552E5520D0EE66E0BECAD
:1004E0000AF0E552590EE66E0BEC0AF0E552200ECA
:1004F000E66E0BEC0AF0E552200EE66E0BEC0AF00D
:10050000E552200EE66E0BEC0AF0E552200EE66E88
:100510000BEC0AF0E552050EDBCFE6FF060EDBCF53
:10052000E6FFCCEC0EF0E552E552200EE66E0BEC49
:100530000AF0E552200EE66E0BEC0AF0E552200EB2
:10054000E66E0BEC0AF0E552200EE66E0BEC0AF0BC
:10055000E552010EDBCF14F0156A14BE156814C005
:10056000E6FF15C0E6FFCCEC0EF0E552E5520D0EAD
:10057000E66E0BEC0AF0E5525A0EE66E0BEC0AF052
:10058000E552200EE66E0BEC0AF0E552200EE66E08
:100590000BEC0AF0E552200EE66E0BEC0AF0E55289
:1005A000200EE66E0BEC0AF0E552070EDBCFE6FFFD
:1005B000080EDBCFE6FFCCEC0EF0E552E552200E44
:1005C000E66E0BEC0AF0E552200EE66E0BEC0AF03C
:1005D000E552200EE66E0BEC0AF0E552200EE66EB8
:1005E0000BEC0AF0E552020EDBCF14F0156A14BED4
:1005F000156814C0E6FF15C0E6FFCCEC0EF0E5521E
:10060000E5520D0EE66E0BEC0AF0E5520D0EE66EAD
:100610000BEC0AF0E552020EDBCF14F0E76E141873
:10062000E8AE02D0E73402D0E750145C2BE2DF5092
:1006300003E1010EDB5026E0DFCF14F0010EDB50AA
:10064000E76E1418E8AE02D0E73402D0E750145C2D
:1006500003E3DFCFE8F103D0010EDBCFE8F1E6687A
:10066000F7EC0CF0E55210EC0CF0899A0A0EE66EED
:10067000E66AB4EC0EF0E552E552300E8012D00E70
:10068000891002D00101E56B0101E96B18D0E4513A
:1006900016E1020EDB5011E089980A0EE66EE66A5A
:1006A000B4EC0EF0E552E552300E8012D00E8910F7
:1006B000010EE66EF7EC0CF0E5520101E66B3D0E23
:1006C000E15C02E2E16AE552E16EE552E7CFD9FF73
:1006D00012000101E46BE86BE96BE668F7EC0CF0E3
:1006E000E552030E84128D128D900A0EE66EE66AB4
:1006F000B4EC0EF0E552E552030E84128D12120096
:10070000D9CFE6FFE1CFD9FF0A0EE126020EDB6A60
:10071000030EDB6A040EDB6A050EDB6A060EDB6A7B
:10072000070EDB6A080EDB6A090EDB6ADE6ADD6A29
:10073000DECF14F0DDCF15F0D890155004E6200E72
:10074000145C000E155801E377D0DECF16F0DDCF34
:1007500017F0D89016361736FD0EDB501624E96ECA
:10076000FE0EDB501720EA6EEECF14F0EFCF15F03F
:10077000020EDBCF18F0030EDBCF19F0155019185D
:10078000E8AE02D0193404D01850145C1950155832
:1007900015E2DECF14F0DDCF15F0D8901436153603
:1007A000FD0EDB501424E96EFE0EDB501520EA6EC0
:1007B000020EEECFDBFF030EEDCFDBFFDECF16F038
:1007C000DDCF17F0D89016361736FD0EDB50162405
:1007D000E96EFE0EDB501720EA6EEECF14F0EFCF7D
:1007E00015F0040EDBCF18F0050EDBCF19F0195011
:1007F0001518E8AE02D0153404D01450185C15500A
:10080000195815E2DECF14F0DDCF15F0D89014366C
:100810001536FD0EDB501424E96EFE0EDB5015205C
:10082000EA6E040EEECFDBFF050EEDCFDBFFDF2A15
:10083000010E01E3DB2A7CD7040EDBCF14F0050E9A
:10084000DBCF15F00001800E151410E0040EDB1C48
:10085000146E050EDB1C156E010E1426000E1522FB
:10086000040E14C0DBFF050E15C0DBFF020EDBCF4C
:1008700014F0030EDBCF15F0800E151410E0020EFD
:10088000DB1C146E030EDB1C156E010E1426000E0D
:100890001522020E14C0DBFF030E15C0DBFF040E91
:1008A000DBCF14F0050EDBCF15F0020EDBCF16F018
:1008B000030EDBCF17F015501718E8AE02D017342F
:1008C00004D01650145C175015580BE3040EDBCF00
:1008D00014F0050EDBCF15F014C0F3FF15C0F4FFC4
:1008E0000BD0020EDBCF14F0030EDBCF15F014C0DB
:1008F000F3FF15C0F4FF00D00A0EE15C02E2E16AEA
:10090000E552E16EE552E7CFD9FF1200D9CFE6FFFD
:10091000E1CFD9FF050EE126FD0EDBCF14F0FE0E70
:10092000DBCF15F00001800E151410E0FD0EDB1C6E
:10093000146EFE0EDB1C156E010E1426000E152221
:10094000FD0E14C0DBFFFE0E15C0DBFFFD0EDBCF7E
:1009500008F0FE0EDBCF09F088EC11F007C014F0B0
:1009600008C015F009C016F00AC017F00C6A0D6A2D
:100970007F0E0E6E430E0F6E14C007F015C008F008
:1009800016C009F017C00AF09BEC11F007C0DEFF9B
:1009900008C0DEFF09C0DEFF0AC0DDFFDD52DD5208
:1009A000D9CFE9FFDACFEAFFEECF14F0EECF15F0A2
:1009B000EECF16F0EFCF17F09A0E0C6E990E0D6E6B
:1009C0000E6E3E0E0F6E14C007F015C008F016C074
:1009D00009F017C00AF041EC12F0010A03E1040E1D
:1009E000DB6A73D0D9CFE9FFDACFEAFFEECF14F09C
:1009F000EECF15F0EECF16F0EFCF17F0660E0C6EBF
:100A00000D6EE60E0E6E3E0E0F6E14C007F015C092
:100A100008F016C009F017C00AF041EC12F0010A04
:100A200006E1010EF36E040EF3CFDBFF4ED0D9CFFB
:100A3000E9FFDACFEAFFEECF14F0EECF15F0EECFFC
:100A400016F0EFCF17F09A0E0C6E990E0D6E190E70
:100A50000E6E3F0E0F6E14C007F015C008F016C0E2
:100A600009F017C00AF041EC12F0010A06E1020E8B
:100A7000F36E040EF3CFDBFF28D0D9CFE9FFDACF36
:100A8000EAFFEECF14F0EECF15F0EECF16F0EFCF79
:100A900017F00C6A0D6A400E0E6E3F0E0F6E14C0FA
:100AA00007F015C008F016C009F017C00AF041ECB5
:100AB00012F0010A06E1030EF36E040EF3CFDBFF22
:100AC00004D0040EF36EF3CFDBFFDB50146E050E83
:100AD000E15C03E200D0E16AE552E16E1450E552B8
:100AE000E7CFD9FF1200D9CFE6FFE1CFD9FF040E3F
:100AF000E126FD0EDBCF14F0FE0EDBCF15F014C0A7
:100B000015F0146A000E1416FF0E151614C0DEFF41
:100B100015C0DDFFFB0EDBCF16F0FC0EDBCF17F0B0
:100B2000FF0E1616000E1716DE501624146EDD503A
:100B30001720156E020E14C0DBFF030E15C0DBFF7D
:100B4000020EDBCF14F0030EDBCF15F014C0F3FF61
:100B500015C0F4FF040EE15C03E200D0E16AE55247
:100B6000E16EE552E7CFD9FF1200D9CFE6FFE1CF22
:100B7000D9FF380EE126D950020FE96EDACFEAFF2D
:100B8000440EEE6E650EEE6E740EEE6E650EEE6E3B
:100B9000630EEE6E740EEE6E650EEE6E640EEE6E0D
:100BA000200EEE6E690EEE6E6E0EEE6E740EEE6E32
:100BB000650EEE6E720EEE6EEE6E750EEE6E700ED1
:100BC000EE6E740EEE6E2E0EEE6EEE6AD950160FAD
:100BD000E96EDACFEAFF530EEE6E6F0EEE6E750E13
:100BE000EE6E720EEE6E630EEE6E650EEE6E200E03
:100BF000EE6E720EEE6E650EEE6E670EEE6E690EA6
:100C0000EE6E730EEE6E740EEE6E650EEE6E720E7E
:100C1000EE6E3A0EEE6EEE6AD950270FE96EDACF1D
:100C2000EAFF530EEE6E740EEE6E610EEE6E740EF3
:100C3000EE6E750EEE6E730EEE6E200EEE6E720E92
:100C4000EE6E650EEE6E670EEE6E690EEE6E730E54
:100C5000EE6E740EEE6E650EEE6E720EEE6E3A0E67
:100C6000EE6EEE6A83A08AD0300EE66EC4DAE552EC
:100C7000D950160FE66E000EDA20E66ED9DBE5528B
:100C8000E5520D0EE66EC7DBE552EEC1E6FFC3DBB3
:100C9000E5520D0EE66EBFDBE5522B0EE66EABDACB
:100CA000E552D950270FE66E000EDA20E66EC0DB63
:100CB000E552E5520D0EE66EAEDBE552EEC1E6FF03
:100CC000AADBE5520D0EE66EA6DBE5520D0EE66ED2
:100CD000A2DBE552D950020FE66E000EDA20E66E76
:100CE000A7DBE552E5520D0EE66E95DBE5522B0EC5
:100CF000E66E81DAE552E76E010EE7CFDBFF330ED9
:100D0000E66E79DAE5520101006F320EE66E73DAB3
:100D1000E5520101016F350EE66E6DDAE552010113
:100D2000026F340EE66E67DAE5520101036F370E8B
:100D3000E66E61DAE5520101046F360EE66E5BDAAB
:100D4000E5520101056F25D80D0EE66E64DBE55214
:100D5000DF6ADFCF14F00A0EE76E1418E8AE02D097
:100D6000E73402D0E750145C09E2640EE66EE66AEE
:100D7000B4EC0EF0E552E552DF2AEBD773D7380E0C
:100D8000E15C02E2E16AE552E16EE552E7CFD9FFAC
:100D90001200D9CFE6FFE1CFD9FF4E0EE126D9CF21
:100DA000E9FFDACFEAFF580EEE6E200EEE6E6D0E02
:100DB000EE6E610EEE6E670EEE6E6E0EEE6E690EEC
:100DC000EE6E740EEE6E750EEE6E640EEE6E650EC9
:100DD000EE6E3A0EEE6EEE6AD9500D0FE96EDACF76
:100DE000EAFF590EEE6E200EEE6E6D0EEE6E610E87
:100DF000EE6E670EEE6E6E0EEE6E690EEE6E740E99
:100E0000EE6E750EEE6E640EEE6E650EEE6E3A0EC2
:100E1000EE6EEE6AD9501A0FE96EDACFEAFF5A0E7B
:100E2000EE6E200EEE6E6D0EEE6E610EEE6E670EC5
:100E3000EE6E6E0EEE6E690EEE6E740EEE6E750E4A
:100E4000EE6E640EEE6E650EEE6E3A0EEE6EEE6AAD
:100E5000D950270FE96EDACFEAFF580EEE6E200E5A
:100E6000EE6E720EEE6E610EEE6E740EEE6E690E2A
:100E7000EE6E6F0EEE6E3A0EEE6EEE6AEE6AD950C0
:100E8000310FE96EDACFEAFF590EEE6E200EEE6EEC
:100E9000720EEE6E610EEE6E740EEE6E690EEE6EFA
:100EA0006F0EEE6E3A0EEE6EEE6AEE6AD9503B0FA2
:100EB000E96EDACFEAFF5A0EEE6E200EEE6E720E7B
:100EC000EE6E610EEE6E740EEE6E690EEE6E6F0ECD
:100ED000EE6E3A0EEE6EEE6AEE6A00C114F0156A1E
:100EE00014BE156814C0E6FF15C0E6FF01C116F078
:100EF000176A16BE176816C0E6FF17C0E6FFF3DDD7
:100F0000E552E552E552E552450EF3CFDBFF460EC2
:100F1000F4CFDBFF02C114F0156A14BE156814C0CB
:100F2000E6FF15C0E6FF03C116F0176A16BE176884
:100F300016C0E6FF17C0E6FFD6DDE552E552E552E2
:100F4000E552470EF3CFDBFF480EF4CFDBFF04C1C1
:100F500014F0156A14BE156814C0E6FF15C0E6FF4C
:100F600005C116F0176A16BE176816C0E6FF17C04F
:100F7000E6FFB9DDE552E552E552E552490EF3CF01
:100F8000DBFF4A0EF4CFDBFF450EDBCFE6FF460E5C
:100F9000DBCFE6FFBBDCE552E552E76E4B0EE7CF59
:100FA000DBFF470EDBCFE6FF480EDBCFE6FFAEDC14
:100FB000E552E552E76E4C0EE7CFDBFF490EDBCF83
:100FC000E6FF4A0EDBCFE6FFA1DCE552E552E76E15
:100FD0004D0EE7CFDBFFD9CFE6FFDACFE6FF28DA09
:100FE000E552E5520D0EE66E16DAE552450EDBCF00
:100FF000E6FF460EDBCFE6FFCCEC0EF0E552E55205
:101000000D0EE66E08DAE552D9500D0FE66E000EB1
:10101000DA20E66E0DDAE552E5520D0EE66EFBD9EA
:10102000E552470EDBCFE6FF480EDBCFE6FFCCEC08
:101030000EF0E552E5520D0EE66EEDD9E552D950AF
:101040001A0FE66E000EDA20E66EF2D9E552E5528E
:101050000D0EE66EE0D9E552490EDBCFE6FF4A0EF3
:10106000DBCFE6FFCCEC0EF0E552E5520D0EE66E5E
:10107000D2D9E552D950270FE66E000EDA20E66E7F
:10108000D7D9E552E5520D0EE66EC5D9E5524B0EA5
:10109000DBCF14F0156A14BE156814C0E6FF15C046
:1010A000E6FFCCEC0EF0E552E5520D0EE66EB3D93C
:1010B000E552D950310FE66E000EDA20E66EB8D94F
:1010C000E552E5520D0EE66EA6D9E5524C0EDBCF89
:1010D00014F0156A14BE156814C0E6FF15C0E6FFCB
:1010E000CCEC0EF0E552E5520D0EE66E94D9E552C9
:1010F000D9503B0FE66E000EDA20E66E99D9E55224
:10110000E5520D0EE66E87D9E5524D0EDBCF14F099
:10111000156A14BE156814C0E6FF15C0E6FFCCECD6
:101120000EF0E552E5520D0EE66E75D9E5524E0E03
:10113000E15C02E2E16AE552E16EE552E7CFD9FFF8
:101140001200D9CFE6FFE1CFD9FF020EE126DE6A19
:10115000DD6ADECF14F0DDCF15F0D890155004E62F
:10116000200E145C000E15581CE2DECF14F0DDCF0B
:1011700015F0D89014361536FD0EDB501424E96EA8
:10118000FE0EDB501520EA6EEECFE6FFEFCFE6FF56
:10119000CCEC0EF0E552E552DF2A010E01E3DB2A2A
:1011A000D8D7020EE15C02E2E16AE552E16EE55257
:1011B000E7CFD9FF1200D9CFE6FFE1CFD9FF829464
:1011C000FE0EDBCFE6FF12EC14F0E5520A0EE66EDF
:1011D000B4EC14F0E552FD0EDBCFE6FF12EC14F098
:1011E000E5520A0EE66EB4EC14F0E5528284E55244
:1011F000E7CFD9FF1200D9CFE6FFE1CFD9FF829424
:10120000FE0EDB8EFE0EDBCFE6FF12EC14F0E55295
:101210000A0EE66EB4EC14F0E5524BEC14F001014A
:10122000EE6F0A0EE66EB4EC14F0E5528284010112
:10123000EE5100D0E552E7CFD9FF1200D9CFE6FF3B
:10124000E1CFD9FF030EE126DF6ADFCF14F0200ED5
:10125000E76E1418E8AE02D0E73402D0E750145C11
:1012600001E3CFD08294F20EE66E12EC14F0E55258
:101270004BEC14F00101006F0A0EE66EB4EC14F0B2
:10128000E5524BEC14F00101016F0A0EE66EB4EC6E
:1012900014F0E5524BEC14F00101026F0A0EE66EF9
:1012A000B4EC14F0E5524BEC14F00101036F0A0E9C
:1012B000E66EB4EC14F0E5524BEC14F00101046F4F
:1012C0000A0EE66EB4EC14F0E5524BEC14F001019A
:1012D000056F0A0EE66EB4EC14F0E552828400C18C
:1012E00016F0176A16BE176816C0E6FF17C0E6FFAD
:1012F00001C118F0196A18BE196818C0E6FF19C0B4
:10130000E6FF73EC05F0E552E552E552E552F3CF06
:1013100014F0F4CF15F0DFCFE9FFEA6AE9BEEA681E
:10132000D890E936EA36060EE926010EEA2214C004
:10133000EEFF15C0EDFF02C116F0176A16BE176862
:1013400016C0E6FF17C0E6FF03C118F0196A18BE01
:10135000196818C0E6FF19C0E6FF73EC05F0E55206
:10136000E552E552E552F3CF14F0F4CF15F0DFCF9C
:10137000E9FFEA6AE9BEEA68D890E936EA36460E3D
:10138000E926010EEA2214C0EEFF15C0EDFF04C1EC
:1013900014F0156A14BE156814C0E6FF15C0E6FF08
:1013A00005C116F0176A16BE176816C0E6FF17C00B
:1013B000E6FF73EC05F0E552E552E552E552DE52E8
:1013C000F3CFDEFFF4CFDDFFDD52010EDBCF14F0F3
:1013D000020EDBCF15F0FF0E145E000E155ADFCFA4
:1013E000E9FFEA6AE9BEEA68D890E936EA36860E8D
:1013F000E926010EEA2214C0EEFF15C0EDFFDF2A38
:1014000024D7030EE15C02E2E16AE552E16EE552A7
:10141000E7CFD9FF1200D9CFE6FFE1CFD9FF9EA8D1
:10142000FED7FE0EDB50AD6EE552E7CFD9FF1200BE
:10143000D9CFE6FFE1CFD9FF020EE126DE6ADD6AF1
:10144000FD0EDBCF14F0FE0EDBCF15F0DE501424C2
:10145000E96EDD501520EA6EEF5015E0FD0EDBCF92
:1014600014F0FE0EDBCF15F0DE501424E96EDD50D3
:101470001520EA6EEF50E66ECEDFE552DF2A010E50
:1014800001E3DB2ADDD7200EE66EC5DFE552200E34
:10149000E66EC1DFE552020EE15C02E2E16AE5526E
:1014A000E16EE552E7CFD9FF1200AECFEDF10101B9
:1014B000010EEC6F1200D9CFE6FFE1CFD9FF0F0E7E
:1014C000E126D9CFE9FFDACFEAFF480EEE6E650ECE
:1014D000EE6E6C0EEE6EEE6E6F0EEE6E200EEE6E1B
:1014E000570EEE6E6F0EEE6E720EEE6E6C0EEE6EB0
:1014F000640EEE6EEE6A0C0EDB6A0C0EDB0426E167
:101500000101EC0523E10D0EDB6A0E0EDB6A0D0E08
:10151000DBCF14F00E0EDBCF15F0D890155004E69B
:10152000050E145C000E15580AE2EDC1E6FF73DFEC
:10153000E5520D0EDB2A0E0E01E3DB2AE8D70D0E75
:10154000E66E69DFE5520101EC6B2FD00C0EDB502B
:101550002CE10D0EDB6A0E0EDB6A0D0EDBCF14F0F4
:101560000E0EDBCF15F0D890155004E60B0E145C70
:10157000000E155816E2D9CF14F0DACF15F00D0E83
:10158000DB501424E96E0E0EDB501520EA6EEF508E
:10159000E66E41DFE5520D0EDB2A0E0E01E3DB2A7B
:1015A000DCD70D0EE66E37DFE552A7D70F0EE15CF4
:1015B00002E2E16AE552E16EE552E7CFD9FF12009F
:1015C0008150040B01E0010EE66EB7D8E552815060
:1015D000040B16E00101F05113E1010EF06F100E43
:1015E000E76EF219E8AE02D0F23503D0E750D880AA
:1015F000F25505E2010EF46FF26B1AD800D017D045
:101600008150040B14E10101F00511E1F06B100EA3
:10161000E76EF319E8AE02D0F33503D0E750D88077
:10162000F35504E2010EF56FF36B02D800D01200FF
:10163000D9CFE6FFE1CFD9FF020EE1260101F40583
:1016400072E1F50570E1DE6ADD6ADECF14F0DDCF10
:1016500015F0D890155004E6180E145C000E1558BD
:1016600061E28150040B01E0010EE66E66D8E5529E
:101670008150040B28E00101F05125E1010EF06FCB
:10168000040EE76EF219E8AE02D0F23503D0E7504F
:10169000D880F25517E2020EE76EF319E8AE02D0D9
:1016A000F33503D0E750D880F3550CE2DECFE9FFE5
:1016B000DDCFEAFFC60EE926010EEA22EF6AF26BE1
:1016C000F36B00D02AD08150040B27E10101F00513
:1016D00024E1F06B080EE76EF319E8AE02D0F335A3
:1016E00003D0E750D880F35518E2020EE76EF319E5
:1016F000E8AE02D0F33503D0E750D880F3550DE2C1
:10170000DECFE9FFDDCFEAFFC60EE926010EEA22B1
:10171000010EEF6EF46BF56B00D0DF2A010E01E3D2
:10172000DB2A93D721D8020EE15C02E2E16AE5529E
:10173000E16EE552E7CFD9FF1200D9CFE6FFE1CF46
:10174000D9FF8150040B05E10101F05102E1F22BB8
:1017500007D08150040B04E00101F00501E1F32BF7
:10176000E552E7CFD9FF12008150040B01E0010ED2
:10177000E66EE3DFE5528150040B1BE00101F051FE
:1017800018E1010EF06F020EE76EF319E8AE02D019
:10179000F33503D0E750D880F3550AE20BD80101A6
:1017A000010EF16FF36BF26BEF6BD59EF08800D0FA
:1017B00000D01200D9CFE6FFE1CFD9FF020EE1261B
:1017C000DE6ADD6ADECF14F0DDCF15F0D89015505B
:1017D00004E60C0E145C000E155818E2DECFE9FF8B
:1017E000DDCFEAFFC60EE926010EEA22EF50DF52F6
:1017F00006E0DFCFF3FFE846FE0BF306FCE1010154
:10180000F66FDF2A010E01E3DB2ADCD7020EE15C72
:1018100002E2E16AE552E16EE552E7CFD9FF12003C
:101820000101E80503E18190819211D0020EE85D8B
:1018300003E1818081920BD0030EE85D03E181908A
:10184000818205D0040EE85D02E18180818229EF6A
:101850000CF01AD83CD854D83AD852D838D850D8E6
:1018600036D84ED834D84CD832D84AD849D82FD8C0
:1018700047D82DD845D82BD843D829D841D827D8F0
:101880003FD825D899EF0CF0E66A010EE66EE3EC3E
:1018900013F0E552E552230EE66EA6EC14F0E55285
:1018A000230EE66EA6EC14F0E552000EE66EE66A34
:1018B000E3EC13F0E552E552230EE66EA6EC14F0CD
:1018C000E552230EE66EA6EC14F0E5521200E66A2D
:1018D000010EE66EE3EC13F0E552E552070EE66EFC
:1018E000A6EC14F0E552000EE66EE66AE3EC13F0A7
:1018F000E552E552110EE66EA6EC14F0E552120028
:10190000E66A010EE66EE3EC13F0E552E552070ECF
:10191000E66EA6EC14F0E552000EE66EE66AE3EC25
:1019200013F0E552E552230EE66EA6EC14F0E552F4
:101930001200E66A010EE66EE3EC13F0E552E552A2
:10194000070EE66EA6EC14F0E552000EE66EE66AAF
:10195000E3EC13F0E552E55212000101040EE86FCA
:101960005FDFFED712000101E30528E1E36BE851D8
:10197000E76EE919E8AE02D0E93503D0E750D88028
:10198000E9551BE3E951040A14E0070A0FE0010AD4
:101990000AE0030A06E0010A01E00ED0F00E80160C
:1019A0000BD0808009D0090E801206D00B0E801259
:1019B00003D00F0E801200D0E92B01D0E32B1200D0
:1019C0000101E55109E13D0EE15D05E1010EE56F23
:1019D000E16BE96B01D0E12BE65108E13D0EE25DE0
:1019E00004E1010EE66FE26B01D0E22B1200D9CFC9
:1019F000E6FFE1CFD9FFE652FE0EDB50FF080EE115
:101A0000000E0101E76EE719E8AE02D0E73503D01A
:101A1000E750D880E75502E2E7071DD0FE0EDB0451
:101A20000DE1050E0101E76EE719E8AE02D0E734DB
:101A300002D0E750E75D02E2E72B0DD0FE0EDB504F
:101A4000050804E10101050EE76F05D0FE0EDB502D
:101A500002E10101E76B0101E739F00BDF6E0F0EC8
:101A60008316DF508312E552E552E7CFD9FF12000B
:101A70008350040B14E00101E55111E0000EE76E04
:101A8000E719E8AE02D0E73503D0E750D880E75534
:101A900006E2E56B8390E668AADFE55204D0010117
:101AA000E55101E083808350080B15E00101E65108
:101AB00012E0050EE76EE719E8AE02D0E73503D075
:101AC000E750D880E75507E3E66B8392010EE66E98
:101AD0008EDFE55204D00101E65101E0838212005D
:101AE000D9CFE6FFE1CFD9FF020EE126050EE66E63
:101AF0007EDFE552E6687BDFE552DE6ADD6ADECF37
:101B000014F0DDCF15F0D890155004E6F40E145CF7
:101B1000010E15580BE2010EE66EE66A25D9E55274
:101B2000E552DF2A010E01E3DB2AE9D7E6685FDF31
:101B3000E552DE6ADD6ADECF14F0DDCF15F0D89015
:101B4000155004E6F40E145C010E15580BE2010E5C
:101B5000E66EE66A09D9E552E552DF2A010E01E395
:101B6000DB2AE9D7E66843DFE552DE6ADD6ADECFCD
:101B700014F0DDCF15F0D890155004E6F40E145C87
:101B8000010E15580BE2010EE66EE66AEDD8E5523D
:101B9000E552DF2A010E01E3DB2AE9D7E66827DFF9
:101BA000E552DE6ADD6ADECF14F0DDCF15F0D890A5
:101BB000155004E6F40E145C010E15580BE2010EEC
:101BC000E66EE66AD1D8E552E552DF2A010E01E35E
:101BD000DB2AE9D7E6680BDFE552DE6ADD6ADECF95
:101BE00014F0DDCF15F0D890155004E6F40E145C17
:101BF000010E15580BE2010EE66EE66AB5D8E55205
:101C0000E552DF2A010E01E3DB2AE9D7010EE66E79
:101C1000EEDEE552DE6ADD6ADECF14F0DDCF15F0D0
:101C2000D890155004E6F40E145C010E15580BE222
:101C3000010EE66EE66A98D8E552E552DF2A010EFB
:101C400001E3DB2AE9D7010EE66ED1DEE552DE6A5A
:101C5000DD6ADECF14F0DDCF15F0D890155004E624
:101C6000F40E145C010E15580BE2010EE66EE66AE6
:101C70007BD8E552E552DF2A010E01E3DB2AE9D7E2
:101C8000010EE66EB4DEE552DE6ADD6ADECF14F0E8
:101C9000DDCF15F0D890155004E6F40E145C010E5B
:101CA00015580BE2010EE66EE66A5ED8E552E55283
:101CB000DF2A010E01E3DB2AE9D7010EE66E97DE8B
:101CC000E552DE6ADD6ADECF14F0DDCF15F0D89084
:101CD000155004E6F40E145C010E15580BE2010ECB
:101CE000E66EE66A41D8E552E552DF2A010E01E3CD
:101CF000DB2AE9D7010EE66E7ADEE552DE6ADD6A9E
:101D0000DECF14F0DDCF15F0D890155004E6F40EB8
:101D1000145C010E15580BE2010EE66EE66A24D83B
:101D2000E552E552DF2A010E01E3DB2AE9D7E2D6CC
:101D3000020EE15C02E2E16AE552E16EE552E7CFB4
:101D4000D9FF12000101E96B040EE86FE851E76E5C
:101D5000E919E8AE02D0E93503D0E750D880E9555B
:101D600001E2E96BF3D71200D9CFE6FFE1CFD9FF4B
:101D7000020E086E096AFD0EDBCF0DF0FE0EDBCF02
:101D80000EF014EC12F00650E66E78EC14F0E5520A
:101D9000E552E7CFD9FF1200D9CFE6FFE1CFD9FF57
:101DA0000D0EE126DE6ADD6A0C0EDB6AFD0EDBCF6E
:101DB00014F0FE0EDBCF15F00001800E151415E0B7
:101DC000FD0EDB1C146EFE0EDB1C156E010E1426C0
:101DD000000E1522FD0E14C0DBFFFE0E15C0DBFF4A
:101DE000010EF36E0C0EF3CFDBFFFD0EDBCF14F014
:101DF000FE0EDBCF15F0D890155004E6100E145CE3
:101E0000270E15583DE3100E146E270E156EFD0EAD
:101E1000DBCF08F0FE0EDBCF09F014C00DF015C0CB
:101E20000EF0EEEC11F008C0DEFF09C0DDFFDECFE2
:101E300014F0DDCF15F0300E1426000E1522020E20
:101E400014C0DBFF030E15C0DBFFFD0EDBCF14F06B
:101E5000FE0EDBCF15F0100E0D6E270E0E6E14C0A9
:101E600008F015C009F0EEEC11F004C014F005C044
:101E700015F0FD0E14C0DBFFFE0E15C0DBFF07D012
:101E8000300EF36E020EF3CFDBFF030EDB6AFD0EA6
:101E9000DBCF14F0FE0EDBCF15F0D890155004E622
:101EA000E80E145C030E15583DE3E80E146E030EA5
:101EB000156EFD0EDBCF08F0FE0EDBCF09F014C06F
:101EC0000DF015C00EF0EEEC11F008C0DEFF09C0F9
:101ED000DDFFDECF14F0DDCF15F0300E1426000E3E
:101EE0001522040E14C0DBFF050E15C0DBFFFD0E2E
:101EF000DBCF14F0FE0EDBCF15F0E80E0D6E030EF7
:101F00000E6E14C008F015C009F0EEEC11F004C01C
:101F100014F005C015F0FD0E14C0DBFFFE0E15C059
:101F2000DBFF07D0300EF36E040EF3CFDBFF050EA0
:101F3000DB6AFD0EDBCF14F0FE0EDBCF15F0D89080
:101F4000155004E6640E145C000E15583BE3640E55
:101F5000146E156AFD0EDBCF08F0FE0EDBCF09F024
:101F600014C00DF015C00EF0EEEC11F008C0DEFF4D
:101F700009C0DDFFDECF14F0DDCF15F0300E1426E2
:101F8000000E1522060E14C0DBFF070E15C0DBFF86
:101F9000FD0EDBCF14F0FE0EDBCF15F0640E0D6EE0
:101FA0000E6A14C008F015C009F0EEEC11F004C080
:101FB00014F005C015F0FD0E14C0DBFFFE0E15C0B9
:101FC000DBFF07D0300EF36E060EF3CFDBFF070EFC
:101FD000DB6AFD0EDBCF14F0FE0EDBCF15F0D890E0
:101FE000155004E60A0E145C000E15583BE30A0E69
:101FF000146E156AFD0EDBCF08F0FE0EDBCF09F084
:1020000014C00DF015C00EF0EEEC11F008C0DEFFAC
:1020100009C0DDFFDECF14F0DDCF15F0300E142641
:10202000000E1522080E14C0DBFF090E15C0DBFFE1
:10203000FD0EDBCF14F0FE0EDBCF15F00A0E0D6E99
:102040000E6A14C008F015C009F0EEEC11F004C0DF
:1020500014F005C015F0FD0E14C0DBFFFE0E15C018
:10206000DBFF07D0300EF36E080EF3CFDBFF090E57
:10207000DB6A300EE76EFD0EDBCF14F0FE0EDBCF19
:1020800015F0E7501426000E15220A0E14C0DBFFCF
:102090000B0E15C0DBFF0C0EDB5005E02D0EE66EBF
:1020A0000BEC0AF0E552D950020FE96EDACFEAFFE5
:1020B000300EEE1801E1ED5006E0040EDBCFE6FF36
:1020C0000BEC0AF0E552D950040FE96EDACFEAFFC3
:1020D000300EEE1801E1ED5006E0040EDBCFE6FF16
:1020E0000BEC0AF0E552D950060FE96EDACFEAFFA1
:1020F000300EEE1801E1ED5006E0060EDBCFE6FFF4
:102100000BEC0AF0E552D950080FE96EDACFEAFF7E
:10211000300EEE1801E1ED5006E0080EDBCFE6FFD1
:102120000BEC0AF0E5520A0EDBCFE6FF0BEC0AF0EF
:10213000E552200EE66E0BEC0AF0E5520D0EE15C66
:1021400002E2E16AE552E16EE552E7CFD9FF120003
:102150000CD82CD83ED844D85AD866D8C5D82CD854
:10216000050EE66E44DCE552120092909292929433
:1021700092969298929A929C929E93909392938424
:102180009396938A938C938E94809482949494964D
:102190009488949A948C948E959095929584958633
:1021A0009598959A959C959E96941200FC0ED31640
:1021B0009B8C700ED3121200969096929298929ADF
:1021C000C290300E8012D00E8910030E84128D1230
:1021D0001200D08EF28EF28CF088F08EF198120000
:1021E000CD80CD8ECF0ECD16CD929D809F90B180AB
:1021F000B18E0F0EB116B192A082A292120082840B
:10220000C68AF00EC616C688C79CC78E1200AB8E53
:10221000AB9CAC8AAB88AC98B898B89A0C0EAF6EF1
:10222000B06A9D8A9F9A12008284E66A030EE66E67
:10223000E66AAFEC13F0E552E552E552E66A310E7C
:10224000E66EDBEC08F0E552E5529F0EE66E2F0ECF
:10225000E66EDBEC08F0E552E552070EE66E2A0E5C
:10226000E66EDBEC08F0E552E552E6681D0EE66E20
:10227000DBEC08F0E552E552100EE66E210EE66E3C
:10228000DBEC08F0E552E552500EE66E220EE66EEB
:10229000DBEC08F0E552E552E668230EE66EDBEC77
:1022A00008F0E552E5520F0EE66E2C0EE66EDBEC02
:1022B00008F0E552E5521F0EE66E380EE66EDBECD6
:1022C00008F0E552E552600EE66E2E0EE66EDBEC8F
:1022D00008F0E552E552080EE66E2D0EE66EDBECD8
:1022E00008F0E552E5521200040EE66E30EC14F0F0
:1022F000E5528C0EE66E74EC13F0E552000EE66EBD
:0C230000E66AE3EC13F0E552E55212002F
:04230C00019E08D056
:10231000019E09AE05D0086C091EE86A0922018EEB
:1023200009C003F008C002F0136A126A8E0E046E30
:10233000056ABBEF12F0016AF7EC12F00FEC13F034
:1023400001B69FEF12F001A205D001BA9FEF12F083
:10235000A6EF12F001BAB2EF12F001A005D001B859
:102360009FEF12F0B2EF12F001B8A6EF12F0056A7B
:102370007F0E0A24046EE86A05220F50045EE86AA4
:10238000055A1A0E106E0A6A126A136A026A036A02
:102390000C50075E0D50085A0E50095A000E0A5A8A
:1023A00009E70C5007260D5008220E500922000E96
:1023B0000A2201D0128AD8900736083609360A3622
:1023C000D8901236133602360336102EE1D7095054
:1023D00008100710D8A4128ABBEF12F0006A0EAEE4
:1023E000F7EF11F00D6C0E1EE86A0E22001E09AE0A
:1023F000FFEF11F0086C091EE86A0922001E62EC6A
:1024000014F009BE0FEF12F000AE000C086C091EAC
:10241000E86A0922046C051EE86A0522000C00BE69
:1024200006EF12F00188FF0C09C013F008C012F08B
:1024300008500D02F4CF07F0F3CF06F009500E025A
:10244000F4CF09F0F3CF08F00D02F3500726F45053
:102450000822E86A092212500E02F3500726F450AF
:102460000822E86A09220EAE3AEF12F01250085E16
:102470001350095A13AE000C0D50085E0E50095A45
:10248000000C4AEC12F001B6000C01B0000C01A4E3
:10249000000C010C016AF7EC12F00FEC13F001B61E
:1024A000120001AE08D001A004D001A802D0018022
:1024B0001200019012000F500A5C0BE10E50095CF3
:1024C00008E10D50085C05E10C50075C02E1018059
:1024D0001200D8A002D0018E10D00A500FC00AF00E
:1024E0000F6E09500EC009F00E6E08500DC008F0B6
:1024F0000D6E07500CC007F00C6E0F500A5C10E018
:10250000FF0F09E0019001B403D001AE0184120075
:1025100001AE019412000F2AD8900E320D320C3207
:102520000C50075E0D50085A0E50095A09BEEAD7E2
:10253000D8900736083609360A2EF8D7C8D77F0E46
:102540000A6EFF0E096E086E076E12007F0E01BE46
:10255000FF0E0A6E02D07F0E0A6E800E096E086AA8
:10256000076AF3D701AE04D0800E0A6E096AF7D766
:102570000A6A096AF4D70350021013101210F8E027
:1025800005BEF0D703BE0CD004500510EBE0D89088
:1025900012361336023603360406D8A00506F2D7E3
:1025A0000550D4E10428D2E012AE11D07F0E1214EF
:1025B00002E113A00CD0132AE86A0222032207E3E7
:1025C000D880033202321332042A0428BFE00450B8
:1025D000C9E013C007F002C008F00334096E0430EC
:1025E0000A6E09320A9E01BE0A8EA5EF12F0093664
:1025F0000A3602E30184017E06E101800A6A096A63
:10260000086A076A12000A2803E0D880093212001B
:10261000D890093202E101821200018612000E36C2
:102620000F3602E3018C017E06E101880F6A0E6A13
:102630000D6A0C6A12000F2803E0D8800E321200D7
:0A264000D8900E32EAE1018A120080
:06264A00960EF66E010E73
:10265000F76E000EF86E00010900F550856F090055
:10266000F550866F03E1856701D03DD00900F55034
:10267000806F0900F550816F0900F550826F0900E5
:102680000900F550E96E0900F550EA6E09000900ED
:102690000900F550836F0900F550846F09000900A7
:1026A000F6CF87F0F7CF88F0F8CF89F080C0F6FF3B
:1026B00081C0F7FF82C0F8FF0001835302E1845319
:1026C00007E00900F550EE6E8307F8E28407F9D7BA
:1026D00087C0F6FF88C0F7FF89C0F8FF00018507B3
:0826E000000E865BBFD712005B
:0826E800D9CFE6FFDACFE6FFCF
:1026F000E1CFD9FFE2CFDAFFE652E652E652E652E8
:10270000F8CF02F0F6CF03F00C0EBA6E050EF66E9F
:10271000F76A300EF86E0800F550010B03E0010E69
:10272000DB6802D0010EDB6A010EDB5002E09492FE
:1027300001D09396CA94FD0EDB50CB6ECA8402C0C2
:10274000F8FF03C0F6FF040EE15C02E2E16AE55225
:0E275000E16EE552E5CFDAFFE7CFD9FF1200C8
:02275E00D9CFD1
:10276000E6FFDACFE6FFE1CFD9FFE2CFDAFF3F0E97
:10277000C716C66AFD0EDB50C612FB0EDB50C71231
:10278000FC0EDB50030A09E0010A04E0020A06E13C
:10279000C78C04D0C78CC68801D0C688FD0EDB501C
:1027A000050A05E0010A05E19486928A03D0948621
:1027B00001D094969488949AC68AE552E5CFDAFFC0
:0627C000E7CFD9FF120073
:0A27C600D9CFE6FFDACFE6FFE1CF3E
:1027D000D9FFE2CFDAFFE652E652FC0EDBCF14F06F
:1027E000FD0EDBCF15F0060ED89014361536E80432
:1027F000FBE114C0DEFF15C0DDFF010EDB50BB6E38
:10280000DF50E840E8403F0B300B146ECF0EBA1497
:102810001410BA6EE552E552E552E5CFDAFFE7CF84
:04282000D9FF1200CA
:0C282400D9CFE6FFDACFE6FFE1CFD9FF05
:10283000E2CFDAFFE652C950DF6E9E96C69EFD0ECD
:10284000DB50C96EC6AE02D0FF0E03D09EA6FED7E7
:10285000000EE552E552E5CFDAFFE7CFD9FF1200CF
:10286000D9CFE6FFDACFE6FFE1CFD9FFE2CFDAFF3B
:10287000FD0EDB50FB0BCA6ECC6A9E92FD0EDBAEEA
:1028800002D09D8201D09D92CA84E552E5CFDAFF45
:06289000E7CFD9FF1200A2
:0A289600D9CFE6FFDACFE6FFE1CF6D
:1028A000D9FFE2CFDAFFE652C950DF6E9E96C96AC1
:1028B0009EA6FED7C950E552E552E5CFDAFFE7CF35
:0428C000D9FF12002A
:0C28C400056A046A100EE76ED890083612
:1028D0000936043605360D50045C0E50055805E3E4
:1028E0000D50045E0E50055A082AE72EF0D712004C
:1028F000FF0EE3501A6E480E01D04C0EE76EE72E25
:10290000FED7E76AE72EFED71A2EF7D7000012008F
:10291000000EF36E00EE00F0060E01D81200EA6021
:1029200002D0EE6AFCD7F350E9601200EE6AFCD7E1
:1029300015EE00F025EE00F0F86A019C25EC13F08E
:0C29400003EC00F0D2EC00F0FBD712001A
:04294C00FF0EE35047
:102950001A6E1B0E00D001D0200EE76EE72EFED7B8
:082960001A2EFAD700D0120074
:08296800FF0EE350E84E1200DF
:0E297000000000D000D000D0E82EFAD71200F0
:02297E00000057
:10298000000101010500000100000000000100003D
:042990000000000043
:00000001FF
